:020000040800F2
:10000000680700208901000829130008AD0E0008C8
:10001000711000088F020008BB15000800000000E6
:100020000000000000000000000000002D13000888
:1000300091020008000000002B1300082F13000895
:10004000A3010008A3010008A3010008A301000800
:10005000A3010008A3010008A3010008A3010008F0
:10006000A3010008A3010008A3010008A3010008E0
:10007000A3010008A3010008A3010008A3010008D0
:10008000A3010008A3010008A3010008A3010008C0
:10009000A3010008A3010008A3010008A3010008B0
:1000A000A3010008A3010008A3010008A3010008A0
:1000B000A3010008A3010008A3010008A301000890
:1000C000A3010008A3010008A3010008A301000880
:1000D000A3010008A3010008A3010008A301000870
:1000E000A3010008A3010008A301000800F002F822
:1000F00000F03AF80AA090E8000C82448344AAF188
:100100000107DA4501D100F02FF8AFF2090EBAE885
:100110000F0013F0010F18BFFB1A43F0010318473B
:10012000B4210000D4210000103A24BF78C878C15F
:10013000FAD8520724BF30C830C144BF04680C60ED
:10014000704700000023002400250026103A28BF35
:1001500078C1FBD8520728BF30C148BF0B60704739
:100160001FB51FBD10B510BD00F058F81146FFF7C0
:10017000F7FF01F047FA00F076F803B4FFF7F2FF5B
:1001800003BC00F07DF8000009488047094800479B
:10019000FEE7FEE7FEE7FEE7FEE7FEE7FEE7FEE737
:1001A000FEE7FEE704480549054A064B7047000094
:1001B00083130008ED000008680100206807002094
:1001C00068030020680300204FF0000200B51346CA
:1001D00094469646203922BFA0E80C50A0E80C5067
:1001E000B1F12001BFF4F7AF090728BFA0E80C5018
:1001F00048BF0CC05DF804EB890028BF40F8042B11
:1002000008BF704748BF20F8022B11F0804F18BF7D
:1002100000F8012B7047704770477047754600F033
:100220002BF8AE4605006946534620F00700854688
:1002300018B020B5FFF7B6FFBDE820404FF000062C
:100240004FF000074FF000084FF0000B21F00701BE
:10025000AC46ACE8C009ACE8C009ACE8C009ACE801
:10026000C0098D46704710B50446AFF300802046A4
:10027000BDE81040FFF781BF00487047040100202F
:1002800001491820ABBEFEE7260002007047FEE7DA
:10029000704700002DE9F84FDFF8B8910024A9F16C
:1002A000040B23460F2709F1040AABF1040EC9E041
:1002B0000125A5402A40AA427DD1674ED1F804C04D
:1002C000ACEB0608B44532D014DCBCF1030F3AD0D5
:1002D00009DCBCF1000F2AD0BCF1010F1CD0BCF12D
:1002E000020F31D11DE0BCF1110F17D0BCF1120F7C
:1002F0002AD119E0B8F5881F19D006DCB8F5803F7F
:1003000015D0B8F5801F1FD111E0B8F5001F0ED031
:10031000B8F5041F18D10AE0CB6815E0CB681B1DA7
:1003200012E0CB6808330FE0CB680C330CE08B682D
:100330002BB1012B4FF0080303D0456104E00423E7
:1003400002E0056100E00023FF2A01D8064601E033
:1003500000F104064FEA840501D9A5F12005D6F87D
:10036000008007FA05FC28EA0C0803FA05F548EABC
:100370000508C6F800804D68ED0062D5374DAE69BE
:1003800046F00106AE61AD6924F0030605F00105F3
:100390000095334D06EB050CDCF80850A607360F28
:1003A00007FA06F825EA0805DFF8B880404503D1CA
:1003B0004FF0000817E044E0DFF8AC80404502D180
:1003C0004FF001080FE0DFF8A480404502D14FF064
:1003D000020808E0DFF89880404502D14FF003089A
:1003E00001E04FF0040808FA06F848EA0508CCF8DE
:1003F00008804D68D9F80060ED024D4601D51643DE
:1004000000E096432E604D68DAF80060AD02554674
:1004100001D5164300E096432E604D68DBF800607E
:10042000AD035D4601D5164300E096432E604D684E
:10043000DEF80060ED03754601D5164300E09643F3
:100440002E60641C0D682A46E5407FF431AFBDE89C
:10045000F88F000008040140000011100010024055
:100460000000014000080140000C01400010014064
:10047000001401400AB1016170470904FBE7000064
:1004800001488068704700006400002002488168CD
:10049000027811448160704764000020074810B55D
:1004A000016841F010010160032000F067F80F209F
:1004B00000F006F800F024F8002010BD00200240F3
:1004C00070B50D4D04464FF47A712878B1FBF0F009
:1004D0000A490968B1FBF0F000F0AEFA48B9102CF7
:1004E00007D200222146501E00F028F800206C6040
:1004F00070BD012070BD000064000020700000206D
:100500000C4808B5816941F001018161816901F000
:1005100001010091C16941F08051C161C06900F0E1
:10052000805000900448416821F0E06141F0007182
:10053000416008BD0010024000000140F0B40E4BC5
:100540001B680C46C3F30223C3F10705042D00D931
:100550000425191D072901D2002300E0DB1E012616
:1005600006FA05F1491E214099409E40761E16402C
:100570003143F0BC01F022B80CED00E0064900F078
:10058000070208684FF6FF03184040EA0220034ABA
:1005900010430860704700000CED00E00000FA0511
:1005A0002DE9F0470F46050061D0434E306800F05A
:1005B0000700B84209D2306820F0070038433060A5
:1005C000306800F00700B84251D128683B4C8107E1
:1005D00012D5400703D5606840F4E0606060287879
:1005E000000703D5606840F4605060606068A968E7
:1005F00020F0F000084360602878C00728D06868C1
:10060000012810D02168022810D0890700292EDA8D
:10061000616821F0030101436160FFF731FF80460B
:1006200041F288390DE021688903EFE78901EDE7A0
:10063000FFF726FFA0EB0801494502D90320BDE8DA
:10064000F0876068696800F00C00B0EB810FEFD1B3
:10065000306800F00700B8420BD9306820F007007E
:1006600038433060306800F00700B84201D0012004
:10067000E5E72878400705D56068E96820F4E06080
:10068000084360602878000706D56068296920F46F
:10069000605040EAC100606000F018F86168084AE4
:1006A000C1F30311515CC840064908600648006860
:1006B000FFF706FF0020C2E70020024000100240C2
:1006C000C422000870000020680000200E4A516813
:1006D0000E4801F00C03042B11D0082B0FD10C484D
:1006E000C1F38343C903C05C0AD55168084AC1F30A
:1006F0004041921E515C054A5043B0FBF1F07047F7
:1007000004494843704700000010024000127A007C
:10071000B422000800093D002DE9F84F040070D014
:100720002078C04DC00749D06868C0F38100012817
:1007300007D06868C0F38100022809D16868C00347
:1007400006D52868800339D560680028E7D035E0F1
:100750006068B0F5803F0BD010B1B0F5A02F11D07C
:10076000286820F480302860286820F4802002E087
:10077000286840F480302860606890B1FFF780FE00
:1007800006460AE0286840F480202860F0E700BFB1
:10079000FFF776FE801B642873D828688003F7D59E
:1007A0000CE0FFF76DFE064605E000BFFFF768FEB0
:1007B000801B6428F0D828688003F7D420789A4EEC
:1007C00080074FF001094FF0000839D5686810F034
:1007D0000C0F07D06868C0F38100022809D168684F
:1007E000C00306D42868800714D52069012808D1E1
:1007F00010E02069B0B1C6F80090FFF741FE07464F
:1008000005E00AE1FFF73CFEC01B0228C4D82868B7
:100810008007F7D52868616920F0F80040EAC10038
:1008200028600DE0C6F80080FFF72AFE074604E0C6
:10083000FFF726FEC01B022823D828688007F7D4BC
:10084000207800072CD57948A169D9B1C0F800906B
:10085000FFF716FE074604E0FFF712FEC01B022852
:100860000FD8686A8007F7D571484FF4FA510068CD
:10087000B0FBF1F0009000BF0098411E0091FAD249
:100880000EE080E0C0F80080FFF7FAFD074604E0C4
:10089000FFF7F6FDC01B022875D8686A8007F7D4F9
:1008A0002078400760D5E8690027C00008D4E869CF
:1008B00040F08050E861E869012700F08050009026
:1008C0005C480168C90513D40168834641F480710E
:1008D0000160FFF7D5FD824606E000BFFFF7D0FDBF
:1008E000A0EB0A0064284ED8DBF80000C005F5D55F
:1008F000E06801280AD008B1052813D0286A20F042
:1009000001002862286A20F0040002E0286A40F012
:1009100001002862E06841F2883B98B1FFF7B0FD22
:1009200082460BE0286A40F004002862EEE700BF30
:10093000FFF7A6FDA0EB0A0159455AD8286A80079F
:10094000F6D50CE0FFF79CFD824605E0FFF798FD29
:10095000A0EB0A0159454CD8286A8007F6D41FB18C
:10096000E86920F08050E861E06988B36968C1F304
:100970008101022944D00228C6F8608004D0FFF724
:100980007FFD044638E034E0FFF77AFD074604E0D7
:10099000FFF776FDC01B02282BD828688001F7D40A
:1009A000206AB0F5803F05D16868A16820F4003066
:1009B00008436860D4E908010843696821F47411A8
:1009C00008436860C6F86090FFF75AFD044606E0E9
:1009D00025E000BFFFF754FD001B022809D8286856
:1009E0008001F7D51BE000BFFFF74AFD001B02287E
:1009F00002D90320BDE8F88F28688001F4D40EE006
:100A00000128F7D06868226A00F48031914204D14D
:100A1000616A00F47010884201D00120EAE70020EA
:100A2000E8E7000000100240000042428004424219
:100A3000700000200070004010B5401EB0F1807FB3
:100A400001D3012010BD4FF0E02460610F21601739
:100A500000F0B4FD0020A06107202061002010BD3F
:100A600070B590F83C20012A26D0012480F83C4043
:100A7000022280F83D2003685A689D6822F07006C3
:100A80000A6832435A600D4B02689A4208D0B2F1AC
:100A9000804F05D00A4B9A4202D00A4B9A4204D1A9
:100AA000496825F080031943916080F83D4000219A
:100AB00080F83C10084670BD022070BD002C01403B
:100AC000000400400008004010B5040003D094F872
:100AD0003D0010B107E0012010BD002084F83C006B
:100AE000204600F01FF8022084F83D00211D2068F8
:100AF00000F048FC012084F8460084F83E0084F8A9
:100B00003F0084F8400084F8410084F8420084F8F3
:100B1000430084F8440084F8450084F83D00002038
:100B200010BD000008B50068B0F1804F08D105483D
:100B3000C16941F00101C161C06900F0010000908C
:100B400008BD00000010024090F83D10012901D0BE
:100B500001207047022180F83D1000680B4988424F
:100B600008D0B0F1804F05D00949884202D0094928
:100B7000884204D1816801F00701062903D0016889
:100B800041F001010160002070470000002C01408D
:100B9000000400400008004070B5044690F83C0096
:100BA0000025012817D0012684F83C60022084F833
:100BB0003D002068826822F0770222F47F42826042
:100BC0000868502838D00DDC20284FD005DC90B3C1
:100BD000102811D14AE0022070BD302846D04028AC
:100BE0000AD13BE060282FD070280DD0B0F5805F8F
:100BF00003D0B0F5005F12D0012584F83D600020DD
:100C000084F83C00284670BDCB68D1E901212068FA
:100C100000F0FBFB2068816841F0770109E0CB68B8
:100C2000D1E90121206800F0F0FB2068816841F4DF
:100C300080418160E1E719E0CA684968206800F0F6
:100C400099FC5021206806E0CA684968206800F0D5
:100C5000A2FC6021206800F0E2FBCEE7CA68496888
:100C6000206800F087FC40212068F4E722680146F4
:100C70001046F0E700B585B0002100910191029186
:100C8000039100680B49884211D10B48816941F0FA
:100C9000040181618069694600F004000490C0206D
:100CA00000900220019003900448FFF7F3FA05B08A
:100CB00000BD000000040040001002400008014098
:100CC00070B5044690F83C0000260D4601280FD070
:100CD000012084F83C006AB1042A1DD0082A2FD0D4
:100CE0000C2A3FD00126002084F83C00304670BD1D
:100CF000022070BD206800F09BFB2068816941F0F4
:100D0000080181612068816921F004018161206806
:100D100081692A69114311E0206800F0B1FB206865
:100D2000816941F4006181612068816921F48061F9
:100D30008161206881692A6941EA02218161D2E7E3
:100D4000206800F0C9FB2068C16941F00801C16159
:100D50002068C16921F00401C1612068C1692A6964
:100D6000114311E0206800F0E3FB2068C16941F401
:100D70000061C1612068C16921F48061C16120689E
:100D8000C1692A6941EA0221C161ACE710B50400DA
:100D900003D094F83D0010B107E0012010BD002001
:100DA00084F83C00204600F01FF8022084F83D0043
:100DB000211D206800F0E6FA012084F8460084F83E
:100DC0003E0084F83F0084F8400084F8410084F835
:100DD000420084F8430084F8440084F8450084F815
:100DE0003D00002010BD000008B50068064988429B
:100DF00008D10648C16941F00201C161C06900F033
:100E00000200009008BD00000004004000100240F5
:100E100010B50446022249B104290ED0082913D086
:100E200094F84100012816D0012010BD94F83E002E
:100E30000128F9D184F83E200FE094F83F00012802
:100E4000F2D184F83F2008E094F840000128EBD16B
:100E500084F8402001E084F841200122206800F05D
:100E6000C7FA0F492068884203D1426C42F400421D
:100E700042642068884208D0B0F1804F05D009490B
:100E8000884202D00849884204D1816801F00701F4
:100E9000062903D0016841F001010160002010BD66
:100EA000002C01400004004000080040FEE7000064
:100EB000F0B585B000252F48009501950295039562
:100EC000816941F010018161816901F01001049193
:100ED000816941F020018161816901F02001049163
:100EE000816941F004018161816901F0040104918B
:100EF000816941F00801816180691F4F00F008009D
:100F00004FF41A460490002231463846FFF7B2FAF1
:100F10004FF460400324CDE9000469461748FFF709
:100F2000B9F90094694616480194FFF7B3F940F205
:100F30003F50CDE9000469463846FFF7ABF94FF65C
:100F4000FF70CDE9000469460E48FFF7A3F90120C0
:100F50000096CDE901050220039069463846FFF767
:100F600099F90948416841F0E06141F4004141606C
:100F700005B0F0BD00100240000801400010014023
:100F800000140140000C01400000014010B586B083
:100F900000241648009401940294039404944FF0A2
:100FA0008041059401600721C0E901144FF6FF71EB
:100FB000C0E903148461FFF787FD08B172B6FEE74C
:100FC0004FF48050009069460848FFF7E5FD08B1EE
:100FD00072B6FEE7049404A904480594FFF740FDA7
:100FE000002801D072B6FEE706B010BD74000020E4
:100FF00010B58AB0002407941C2168460894FFF7B6
:10100000E3F81A481849C0E9001442F21071C0E927
:10101000024104618461FFF7B9FE08B172B6FEE7D0
:10102000079407A911480894FFF71AFD08B172B692
:10103000FEE76020CDE900040294002269460B48D7
:101040000494FFF73DFE08B172B6FEE7042269463C
:101050000648FFF735FE08B172B6FEE70348FFF712
:1010600009FE0AB010BD000000040040BC000020D2
:10107000FEE700002DE9F05FA34C0646002060600B
:101080000D46208800F0E2FE314600F027FF9F4920
:1010900000F01AFEA06000F07DFD02460B46002025
:1010A0009B4900F021FB9B4E0022334600F074FC6C
:1010B00000F0E0FAE06000F06DFD6FF0030201F077
:1010C000B2F80022334600F067FC00F0D3FA20614A
:1010D000284600F05FFD072201F0A5F88E4A8F4BED
:1010E00000F002FB00F0C6FA606100F0ADFA4FF4C8
:1010F000007BDFF82CA28B4D04F14409F9E0D046C7
:101100000122594656464046FFF7B4F900224FF4F3
:1011100000413046FFF7AEF9012211033046FFF7D8
:10112000A9F900224FF400613046FFF7A3F9764F8A
:10113000002624376169606800F09CFF10D9296897
:1011400037F816008863206900F048FA4FF07E51A6
:10115000606800F04BFD761CF6B26060102EE9D39B
:1011600000266169606800F085FF10D9296839F8A8
:1011700016004863206900F031FA4FF07E51606834
:1011800000F034FD761CF6B26060102EE9D3002228
:10119000594646464046FFF76DF90122D1033046D5
:1011A000FFF768F900266169606800F063FF10D9F5
:1011B000296837F816004863206900F00FFA4FF0ED
:1011C0007E51606800F012FD761CF6B26060102E51
:1011D000E9D300266169606800F04CFF10D92968E6
:1011E00039F816008863206900F0F8F94FF07E5155
:1011F000606800F0FBFC761CF6B26060102EE9D34C
:1012000000224FF48051C24646464046FFF732F96D
:101210000122D1023046FFF72DF9B84600264FF0E3
:101220007E576169606800F025FF0FD9296838F89A
:1012300016008863206900F0D1F93946606800F033
:10124000D5FC761CF6B26060102EEAD300264F461D
:101250006169606800F00EFF10D9296837F8160040
:101260004863206900F0BAF94FF07E51606800F0E1
:10127000BDFC761CF6B26060102EE9D301225946FF
:1012800056465046FFF7F6F800224FF4004130462C
:10129000FFF7F0F800266169606800F0EBFE10D9F6
:1012A000296838F816004863206900F097F94FF074
:1012B0007E51606800F09AFC761CF6B26060102ED9
:1012C000E9D300264FF07E586169606800F0D2FED5
:1012D0000FD9296837F816008863206900F07EF975
:1012E0004146606800F082FC761CF6B26060102E09
:1012F000EAD36169606800F0BDFDFFF400AFBDE8AE
:10130000F05F00F0ADB90000000000200000704266
:101310000000F03F00408F40CDCCCCCCCCCC1C406A
:1013200000080140BC000020FEE770477047FFF74F
:10133000ADB810B590B028216846FEF745FF1421DE
:101340000AA8FEF741FF022000900120049010201F
:101350000024059007946846FFF7DEF908B172B6DD
:10136000FEE70F20CDE90A040C940D9400210AA891
:101370000E94FFF715F9002801D072B6FEE710B001
:1013800010BD7047F0B50268164B174C174D4FF063
:101390008047984205D0B84203D0A04201D0A8426D
:1013A00003D122F070064A683243984205D0B84211
:1013B00003D0A04201D0A84203D122F44074CA68ED
:1013C00022434C6922F08002224302608A68C26292
:1013D0000A688262984201D1096901630121416171
:1013E000F0BD0000002C0140000400400008004057
:1013F00010B501F01F030121046A99408C43046277
:10140000016A9A401143016210BD10B5846842EA36
:10141000032224F47F440A432243826010BD826881
:1014200022F070020A4342F0070181607047000019
:1014300030B5036A026A22F00102026242688469DE
:1014400024F073050C682C4323F002058B682B43B2
:101450000A4DA8420BD123F00805CB6822F4407254
:101460002B434D6923F0040315438A692A434260E4
:10147000846149684163036230BD0000002C014073
:1014800030B5026A036A23F010030362436884697B
:101490000D6824F4E64444EA05248D6822F0200215
:1014A00042EA05120B4DA8420ED1CD6822F080020F
:1014B00042EA05124D6923F4406343EA85038D69CE
:1014C00022F0400243EA85034360846149688163F6
:1014D000026230BD002C014030B5036A026A22F47A
:1014E000807202624268C46923F4007324F07305B9
:1014F0000C682C438D6843EA05230C4DA8420ED19D
:10150000CD6823F4006343EA05234D6922F4405279
:1015100042EA05128D6923F4806342EA05124260B3
:10152000C4614968C163036230BD0000002C014002
:1015300030B5046A026A22F4805202624268C369CA
:101540000D6823F4E64343EA05238D6824F4005430
:1015500044EA0534064DA84204D14D6922F4804284
:1015600042EA85124260C36149680164046230BD89
:10157000002C014010B5036A046A24F001040462DF
:10158000846924F0F00444EA021423F00A020A43B6
:101590008461026210BD10B5036A046A24F010046D
:1015A0000462846923F0A00324F4704444EA023204
:1015B00043EA01118261016210BDFEE70907090ECD
:1015C000002804DB00F1E02080F80014704700F0F0
:1015D0000F0000F1E02080F8141D704770B5074C33
:1015E000074DA0612968002048622868406A00F021
:1015F0002DFCA16900F03EFCF7D370BD0000002077
:1016000074000020FEF74AFFFFF793FEFFF750FC3F
:10161000FFF7BCFCFFF7ECFC0848FFF795FA07481A
:1016200000214830FFF7F4FB044804214830FFF75D
:10163000EFFB03490348FFF71DFDFEE774000020A0
:101640000000614500002041044842F21071026828
:10165000516300680021816370470000BC000020D6
:1016600003480021026851630068816370470000ED
:10167000BC00002021F00042A2F16052B2F5801FB0
:1016800001F0004328BFD2F17F6C0BD95FEA001C48
:1016900043EAC20242EB507018BF704728BF20F0E7
:1016A00001007047B2F5801FBCBF184670474FEA73
:1016B000410C1CF5001F02D2084600F0D6BC70B5E4
:1016C00000F014FA00000089FFF7F6BF4FF0004069
:1016D000A0F580007047000002494FF0000000F0C4
:1016E00070BD00BF0000F87F2DE9C04130B4DFF8C5
:1016F000A0C23CEA111418BF3CEA131400F0EC80BD
:1017000081EA03051CEA111444EAD57418BF1CEAE7
:10171000131500F0C780A4EB05044FF0004545EA1F
:10172000C12145EAC32341EA505143EA525304F12F
:101730007F74994204F500344FEAC0204FEAC22278
:1017400008BF904200F09C804FEA13650FF24016EC
:10175000765D4FEA134506FB05F7C7F1807706FB78
:1017600007F74FEAD737A7FB03687642C8F58038FA
:10177000A7FB06CE38BFA8F1010807FB08E64FF02B
:10178000000EA6FB028CE6FB03CEDCF1000CCEF1D2
:10179000004E38BFAEF1010EA6FB0C584FF000070B
:1017A0004FF00005E6FB0E87A1FB08C6A0FB07CEA5
:1017B00016EB0E0645F10005E1FB076515F1E04E5D
:1017C0007EBFA4F580345FEA46066D4116F18007BE
:1017D00045F100054FEA17274FEA066647EA056715
:1017E000A6F1DE46B6F1805F4FEA15251FD93846CF
:1017F00024F0010C05EBC471BCF1FE6F01EB0C1180
:1018000002D8F0BCBDE8008124425CBF01F5801E17
:101810009EEAC47F02D4F0BCBDE80081244238D4E3
:10182000F0BCA1F1C041BDE8004100F0ADB94FEA04
:10183000D22242EA43524FEAD323A7FB02864FEA61
:10184000D02040EA415007FB03661EEA0E0F4FEA24
:10185000D12105FB026658BFA6EB0056B6EB005639
:101860004FEA520E4EEAC37E18EB0E0E56EB530EA5
:10187000BDD518EB02085E417F1C55F10005B6E7A7
:101880004FF480154FF000074FF000064FF00008AE
:10189000ADE7F0BC4FF0000001F1C04101F00041A4
:1018A000BDE8008111EA0C1F0CEA131500D00CE012
:1018B00013EA0C1F00F025804FF00000F0BC81EA15
:1018C000030101F00041BDE80081F0BCBDE800412A
:1018D00081EA030100F058B9F0BCBDE8004170B5E1
:1018E00000F004F9097EFC3E00F007B881EA03012C
:1018F0004FF0000001F00041704781EA030100F061
:1019000043B9F0BCBDE800414FF0000021497047E9
:10191000FFFDFBF9F7F5F4F2F0EEEDEBE9E8E6E4B4
:10192000E3E1E0DEDDDBDAD8D7D5D4D3D1D0CFCD3B
:10193000CCCBCAC8C7C6C5C4C2C1C0BFBEBDBCBB74
:10194000BAB9B8B7B6B5B4B3B2B1B0AFAEADACAB6F
:10195000AAA9A8A8A7A6A5A4A3A3A2A1A09F9F9E49
:101960009D9C9C9B9A9999989797969595949393FB
:10197000929191908F8F8E8E8D8C8C8B8B8A898992
:101980008888878786858584848383828281818015
:101990000000FF070000F87FDFF848C170B51CEABF
:1019A000111E1EBF1CEA13159EEA0C0F95EA0C0FC0
:1019B00000F06F8081EA030423EA4C134EEAD47EE0
:1019C00021EA4C1141F4801143F48013AE44A1FB91
:1019D000024CA0FB0365AEF17F7E361955EB0C057A
:1019E000A1FB034C4CF10003A0FB021C16EB0C0600
:1019F000654153F10003094218BF46F0010613F494
:101A0000007F0BD14FEA03314FEA0530340341EA3E
:101A1000155140EA16506FF003020AE04FEAC32165
:101A20004FEAC520F40241EA555140EA56506FF0A2
:101A3000020202EB2E4201EB025585EACE710AD07A
:101A40005FEA440C18BF24F0004450F1000041F15B
:101A5000000120EAD47040F2FE7C624500D270BDE5
:101A6000A84214BF4FF080444FF04044002E08BFFE
:101A70000024BEF1806FA8BFA1F1C041BDE8704055
:101A800080F282804FF0000001F1C04101F000417E
:101A900070479EEA0C0F0CEA131518BF95EA0C0F5D
:101AA00006D04FF0000081EA030E0EF0004170BD39
:101AB00000F01CF88900013E00F007B800F009B8FA
:101AC0004FEA430C5FEA5C5C08D081EA030100F056
:101AD0005BB84FEA410C5FEA5C5CF6D14FF0000066
:101AE000014970470000FF070000F87F0EF1020E69
:101AF0002EF0030E5EF8046B364205D4012A43EB48
:101B0000030515F5001F12D8012841EB010C1CF547
:101B1000001F0CD80ED14FEAD17C15F5001F0CEB3D
:101B20004C0C0CF1020C08BF4CEBD37C04E04FF0E2
:101B3000080C01E04FEAD37C0CEB4C0526FA05F6C5
:101B400006F00706B6F1040C06D20EEB860CBDE8D3
:101B500070404CF0010C6047DFE80CF0090B02020A
:101B60004FF000414FF00000A1F5002170BD194673
:101B70001046012851EB010418BFD4F5001484BFAE
:101B8000002001F0004170BD0808A0F500114FEAE7
:101B90003101704743004FEAD30C4FEA3C0C4340FD
:101BA0001FBF40070CF1605113F0FE4F70471CF04F
:101BB000006F03D100200CF0004170470CF000438F
:101BC00043EA507010B540EACC0000F008FA00BFBC
:101BD000000000924FEA0001FFF7D6BF4FF000412E
:101BE0004FF00000A1F500217047000090EA010FBE
:101BF00048BF81F0004100F17682421A3CBF801A52
:101C000089184FEAD0524FF07F4C1CEA410FA2EBEB
:101C1000D15318BF9CEA026F00F03B804FF0004C9C
:101C20004CEA00204CEA012121FA03FC10EB0C0CD9
:101C30001ED202F1FF325FEA1C2040EBC25038BFD7
:101C400070471CF07F0F4FEA400C18BFBCF17F4F6C
:101C500038BF7047C3F12003994008BF20F001004E
:101C6000BCF17F4F38BF7047A0F1C04000F0FDB914
:101C70004FEA3C00000A40EBC25028BF1CF0FF0FA7
:101C80004FEA400CE6D018BFBCF17F4F38BF704719
:101C9000EAE79CEA026F05D010EA5C0F08BF00F08B
:101CA0000040704710B500F09AF900BF64FBBE3EDB
:101CB000401058BFC0F14040491058BFC1F14041E9
:101CC0008142EFF3008070474FF47F0C1CEAD01282
:101CD0001EBF1CEAD11392EA0C0F93EA0C0F00F01E
:101CE000858090EA010F48BF42F4807240F4000CF6
:101CF00041F400002CF07F4120F07F4000B581428C
:101D0000A2EB03020FF2081CACEB504EC0F1000036
:101D10009EF800E04FEA4E0E00FB0EFC38BF490073
:101D20004FEA2C1C02F5FA020CFB0EF34FEACE1E12
:101D30004FEA112C4FEAC1210EEB635E42EB2242C7
:101D40000EFB0CFC4FEA1C5300FB03114FEA112C55
:101D50004FEA01310EFB0CFC4FEADC4C00FB0C118E
:101D6000C14228BF09184CEB03335DF804EB10EBBC
:101D7000410143EBC250B2F57C0F38BF704729D503
:101D800012F0F00F1CBF00F1C04000F0004070479F
:101D9000008182838485868788898B8C8D8E8F9144
:101DA0009293959697999A9C9D9FA0A2A3A5A7A868
:101DB000AAACAEB0B2B3B5B7B9BCBEC0C2C5C7C994
:101DC000CCCED1D4D7D9DCDFE2E6E9ECF0F3F7FAF8
:101DD000FE0000004FEA400C0CF1807CBCF17E4F0D
:101DE00028BF7047B0F1C04000F03FB990EA010F42
:101DF0000CEAD11348BF42F48072624538BF634594
:101E000007D213F47F0F16D080EA010000F00040E3
:101E1000704710B500F0E3F8097EFC3E00F005B80D
:101E200080EA010000F00040704780EA010000F005
:101E3000004000F01AB912F47F0F04BF0248704747
:101E400080EA010000F011B90000C07FB0FA80F311
:101E500010FA03F2C3F19D030AD0D90501EB122059
:101E6000530638BF704700F1010008BF20F00100A1
:101E70007047000050EA010C00F113801CF5000FC0
:101E800058BFBCF5000F01D48842704707D710F542
:101E9000000F58BF11F5000F15D4884270478942D2
:101EA00070471CF5000F04D5BCF5000FF7D5814233
:101EB00070474FF0807C1CEB400F38BF1CEB410F8C
:101EC00001D28142704710B500F089F89224490090
:101ED0004FF000504FF08051FFF7EABE4FF47F0CF7
:101EE0001CEAD0121EBF1CEAD11392EA0C0F93EA2F
:101EF0000C0F00F0478090EA010F48BF42F4807257
:101F00004FF0004C4CEA00204CEA012102EB0302A6
:101F1000A0FB0113A2F50002002918BF43F0010342
:101F20005B0028BF4FEA330342EB22425FEA132CE7
:101F30004CEBC2502EBFBCEB436FB2F57C0F704729
:101F40004FEA036CBCF1004F08BF20F00100B2F56E
:101F50007C0F38BF70470BD582F0FF0212F5803F2F
:101F6000C8BF704700F1C040D8BF00F000407047C4
:101F700000F5000C5FEA4C0C48BF7047B0F1C04060
:101F800000F073B890EA010F0CEAD11348BF42F495
:101F90008072624538BF634504D280EA010000F0D8
:101FA0000040704710B500F01AF800BF8900013EEC
:101FB00000F007B800F009B85FEA410C5FEA1C6C5A
:101FC00008D080EA010000F050B85FEA400C5FEAF8
:101FD0001C6CF6D14FF00040A0F5800070470EF168
:101FE000020E2EF0030E5EF8044B244204D44FEA96
:101FF0004102B2F17F4F11D84FEA4003B3F17F4F56
:102000000CD80ED14FEAD07CB2F17F4F0CEB4C0CC8
:102010000CF1020C08BF4CEBD17C04E04FF0080C33
:1020200001E04FEAD17C0CEB4C0324FA03F404F0FA
:102030000704B4F1040C06D20EEB840CBDE810408A
:102040004CF0010C6047DFE80CF0070802024FF08B
:102050000040A0F5800010BD0846420018BFD2F134
:10206000807288BF00F0004010BDFF2141EAD050CF
:10207000C005704751EA000C00F113801CF5000FF9
:1020800058BFBCF5000F01D48142704707D711F546
:10209000000F58BF10F5000F15D4814270478942D8
:1020A00070471CF5000F04D5BCF5000FF7D588422A
:1020B00070474FF0807C1CEB410F38BF1CEB400F8A
:1020C00001D28842704780EA010081EA000180EA7B
:1020D0000100FFF7F8BE000090EA010F48BF81F051
:1020E00000413FF58AAD421A04D882F00042A0EBCD
:1020F000020011444FEAD0524FF07F4C1CEA410FCE
:10210000A2EBD15318BF9CEA026F4AD04FF0004CAB
:102110004CEA00204CEA012121FA03FCB0EB0C0C44
:102120000FD412F0FE0F36D05FEA4C001DD500121E
:1021300040EBC25038BF70471CF03F0F18BF7047CC
:102140000BE0A2F101025FEA1C2040EBC25038BF55
:1021500070471CF07F0F18BF7047C3F120039940F0
:1021600014BF401E20F00100704780084FEA122380
:1021700008BF7047B0FA80FCA2EB0C02CCF1280C2F
:1021800060FA0CF093EA122F04BF00EBC2507047C4
:102190004FEAC3707047130A5FEADC1008BF70474C
:1021A000F6E79CEA026F04D010EA5C0F08BF00203B
:1021B000704710B5FFF713FF40DFF63E81F0004097
:1021C00070470CF00F03092B08BF082000F059805E
:1021D0000A2B0BD0082B18BF704708BF1CF0400F0C
:1021E0000AD04FF000004FF0000170471CF0400F84
:1021F00018BF4FF0004070471CF0100F08D020F0BF
:10220000704300F07F4242EAD3014FEA43707047C7
:1022100000F0604021F07F4242EA000201F07F407E
:1022200040EA727070474FF0FF0C4CF4E06C1CEA0F
:1022300011531CBF9CEA030C9445C2BFDA4201EB68
:1022400002517047002B0DD0BCF1000F0FD0002AB7
:1022500001F00041A4BF41F0E04141F07F614FF047
:102260000000704701F000414FF00000704750EA55
:1022700001334FF09B0C18BF4CF0806C7FF42CAAFC
:1022800070471CF4801F11D01CF4E02F03D06FEABC
:10229000CC31490070474FF04050EFF3008222F0FC
:1022A000704242EA000282F3008870474FF000005B
:1022B0007047010202030405060708090A0B0C0D0A
:1022C0000E0F1010000000000000000001020304C7
:1022D00006070809F422000800000020740000002E
:1022E000280100086823000874000020F40600009C
:1022F0004401000890010000000000000000000000
:1023000000000000000000000000000000000000CD
:102310000E0A0B090D050706D403D007540BD80E7F
:102320005C12E0159C18BC1B141E6C206022542407
:1023300058254826DE261027DE2648265825542410
:1023400060226C20141EBC1B9C18E0155C12D80E79
:10235000540BD007D403000001000000100000005F
:08236000000000000024F4005D
:04000005080000ED02
:00000001FF
